:1000000040050020416D0000996C00009B6C0000D1
:100010009D6C00009F6C0000A16C000000000000BF
:10002000000000000000000000000000A36C0000C1
:10003000A56C000000000000A76C0000A96C000087
:10004000816D0000856D0000896D00008D6D0000E0
:10005000916D0000956D0000996D00009D6D000090
:10006000A16D0000A56D0000A96D0000AD6D000040
:10007000B16D0000B56D0000B96D0000BD6D0000F0
:10008000C16D0000C56D0000C96D0000CD6D0000A0
:10009000D16D0000D56D0000D96D0000DD6D000050
:1000A000E16D0000E56D0000E96D0000ED6D000000
:1000B000796C0000F56D0000F96D0000FD6D000029
:1000C000016E0000056E0000096E00000D6E00005C
:1000D000116E0000156E0000716C0000696C00006C
:1000E000216E0000256E0000296E000080B5DFF84B
:1000F000681B897A002902D15FF0FF3042E080B2AC
:10010000FA2809D0B0F5FA7F14D0B0F57A7F15D06F
:10011000B0F5FA6F16D019E000208DF80000DFF876
:10012000380B007A9DF80010C9B2C908884210D176
:10013000002027E008208DF80000F0E710208DF85F
:100140000000ECE718208DF80000E8E75FF0FF30D2
:1001500018E000AB0122DFF8000B00688179DFF8BE
:10016000F80A4068007801F0DFFE002802D05FF056
:10017000FF3007E0DFF8E00A9DF80010C9B2C908B7
:100180000172002002BD80B5DFF8CC1A897A0029FF
:1001900002D15FF0FF303FE0C0B2022806D0042851
:1001A00012D0082814D0102816D019E000208DF89D
:1001B0000000DFF8A40A407A9DF80010C9B2C9080F
:1001C000884210D1002027E008208DF80000F0E7D9
:1001D00010208DF80000ECE718208DF80000E8E70B
:1001E0005FF0FF3018E000AB0122DFF86C0A006816
:1001F000C179DFF8640A4068007801F095FE0028B4
:1002000002D05FF0FF3007E0DFF84C0A9DF80010E5
:10021000C9B2C9084172002002BD80B5DFF8381AA2
:10022000897A002902D15FF0FF3045E080B2BC2816
:1002300003D301208DF800001EE080B2622803D3B2
:1002400002208DF8000017E080B22A2803D3032093
:100250008DF8000010E080B2142803D304208DF83C
:10026000000009E080B20A2803D305208DF80000C1
:1002700002E006208DF80000DFF8DC09C07A9DF866
:100280000010884201D1002016E000AB0122DFF807
:10029000C80900688178DFF8C0094068007801F07B
:1002A00043FE002802D05FF0FF3005E0DFF8A80928
:1002B0009DF80010C172002002BD10B582B004008C
:1002C000DFF8940990F82300E4B2A04201D10020A5
:1002D00036E0E4B2002C03D030208DF8000002E0BC
:1002E00000208DF80000DFF87009807C002805D020
:1002F0009DF8000050F002008DF80000DFF858096A
:1003000090F82200002805D09DF8000050F08000F1
:100310008DF8000000AB0122DFF83C090068017D88
:10032000DFF834094068007801F0FEFD002802D0B3
:100330005FF0FF3004E0DFF8200980F82340002060
:1003400016BD80B5DFF8101991F82410002920D0CF
:10035000C0B2002803D002208DF8000002E0002087
:100360008DF8000000AB0122DFF8EC080068C17BCB
:10037000DFF8E4084068007801F0D6FD002802D0DC
:100380005FF0FF3038E0DFF8D0089DF800104174CE
:1003900031E0DFF8C418897A002902D15FF0FF301C
:1003A0002AE0C0B2002806D0DFF8AC18497C00294A
:1003B00001D0002020E0C0B2002803D001208DF839
:1003C000000002E000208DF8000000AB0122DFF801
:1003D00088080068C17BDFF880084068007801F079
:1003E000A3FD002802D05FF0FF3005E0DFF86808C9
:1003F0009DF800104174002002BD80B5DFF8580858
:10040000807A002802D15FF0FF300BE100208DF8E8
:10041000000000AB0122DFF840080068C17BDFF874
:1004200038084068007801F07FFD002802D05FF0B6
:10043000FF30F7E000AB0122DFF81C0800684179CB
:10044000DFF814084068007801F06EFD002802D043
:100450005FF0FF30E6E000AB0122DFF8FC07006848
:100460000179DFF8F4074068007801F05DFD0028AD
:1004700002D05FF0FF30D5E0DFF8DC0790F8240011
:10048000002866D00C208DF8000000AB0122DFF8B8
:10049000C80700680179DFF8C0074068007801F0FC
:1004A00043FD002802D05FF0FF30BBE0322001F0B6
:1004B0008FFDC0208DF80000DFF89C07807AC00710
:1004C00005D59DF8000050F020008DF8000000AB2D
:1004D0000122DFF8840700680179DFF87C074068B3
:1004E000007801F021FD002802D05FF0FF3099E094
:1004F000DFF86407407C002803D002208DF800005C
:1005000002E000208DF8000000AB0122DFF8480770
:100510000068C17BDFF840074068007801F004FD07
:10052000002802D05FF0FF307CE000208DF8000052
:1005300000AB0122DFF8200700684179DFF81807D7
:100540004068007801F0F0FC00286AD05FF0FF30CE
:1005500068E004208DF8000000AB0122DFF8F80607
:1005600000680179DFF8F0064068007801F0DCFCF3
:10057000002802D05FF0FF3054E0DFF8DC06807C1A
:10058000002804D1DFF8D006807AC00703D44020C9
:100590008DF8000002E060208DF8000000AB012221
:1005A000DFF8B40600680179DFF8AC06406800782F
:1005B00001F0BAFC002802D05FF0FF3032E03220B8
:1005C00001F006FDDFF89006407C002803D00120F2
:1005D0008DF8000002E000208DF8000000AB012241
:1005E000DFF874060068C17BDFF86C0640680078AD
:1005F00001F09AFC002802D05FF0FF3012E0DFF833
:10060000F83C0122DFF8500600684179DFF848061F
:100610004068007801F088FC002802D05FF0FF30CD
:1006200000E0002002BD70B50400002614F0FE04B6
:10063000DFF8240690F82400002801D0002038E0DC
:10064000DFF81406807A002802D15FF0FF3030E036
:10065000DFF80406057CDFF80006807A2040DFF82A
:10066000F8150874DFF8F005007CE4B2A04202D06F
:100670005FF0FF3600E00026E4B2002C04D1DFF882
:10068000D805007D002803D00120FFF75AFE02E0C4
:100690000020FFF756FEE4B2002C09D0FFF7ADFEB4
:1006A000002805D0DFF8B00505745FF0FF3000E0EA
:1006B000300070BD10B582B00400E4B2292C02D322
:1006C0005FF0FF3074E0E4B2002C1FD10020FFF790
:1006D000F4FD00208DF8000007208DF8010000AB2C
:1006E0000222DFF874050068817CDFF86C05406841
:1006F000007801F019FC002802D05FF0FF3057E0CD
:10070000DFF8540500210175002051E00120FFF7BA
:10071000D4FD20208DF80000E4B2012C06D1002089
:100720008DF801000520FFF778FD19E0E4B2062CF2
:1007300006D201208DF801000520FFF76EFD0FE0C5
:10074000E4B2152C06D202208DF801000A20FFF732
:1007500064FD05E003208DF801001420FFF75DFD26
:100760009DF80100800150F007008DF8010000ABFA
:100770000222DFF8E4040068817CDFF8DC044068D2
:10078000007801F0D1FB002802D05FF0FF300FE0CD
:10079000DFF8C40408218172DFF8BC040021017372
:1007A000DFF8B404012101750020FFF73CFF0020B1
:1007B00016BD10B582B00400DFF89C04807A0028D2
:1007C00002D15FF0FF3053E0DFF88C0490F8240092
:1007D000002802D05FF0FF304AE0DFF87C04007DA3
:1007E00000280ED0A4B2002C08D0A4B2292C05D227
:1007F0002000C0B2FFF75EFF002039E00020FFF7C5
:1008000059FFA4B2042C01D2042406E040F2E930DE
:10081000A4B2844201D34FF47A744FF47A70A4B234
:1008200090FBF4F0401E8DF8000000AB0122DFF8D1
:10083000280400684178DFF820044068007801F05F
:1008400073FB002802D05FF0FF3011E04FF47A70A4
:100850009DF80010491C90FBF1F0DFF8FC13C881F3
:10086000DFF8F403C08980B24008FFF7D6FC00200F
:1008700016BD10B582B00400DFF8DC03807CE4B262
:10088000A04201D10020B4E0E4B2002C56D000AB6D
:100890000122DFF8C40300680179DFF8BC03406877
:1008A000007801F05FFB002802D05FF0FF30A0E08D
:1008B0009DF8000010F0DF008DF8000000AB012271
:1008C000DFF8940300680179DFF88C034068007852
:1008D00001F02AFB002802D05FF0FF3089E00320FE
:1008E00001F076FB02208DF80000DFF86C0390F831
:1008F0002200002805D09DF8000050F080008DF8FF
:100900000000DFF8540390F82300002805D09DF87C
:10091000000050F030008DF8000000AB0122DFF83D
:1009200038030068017DDFF830034068007801F08B
:10093000FBFA00285AD05FF0FF305AE000AB0122EA
:10094000C54800680179C4484068007801F00AFB96
:10095000002802D05FF0FF304BE0BF48807AC0072C
:1009600006D59DF8000050F020008DF8000005E04D
:100970009DF8000010F0DF008DF8000000AB0122B0
:10098000B54800680179B4484068007801F0CCFAB5
:10099000002802D05FF0FF302BE0032001F018FBAD
:1009A000AD4890F82200002803D080208DF8000088
:1009B00002E000208DF80000A74890F823000028EE
:1009C00005D09DF8000050F030008DF8000000AB1D
:1009D0000122A1480068017D9F484068007801F02D
:1009E000A3FA002802D05FF0FF3002E09A48847436
:1009F000002016BD10B582B004007020044203D060
:100A000001208DF8000009E0E4B2002C03D00020A2
:100A10008DF8000002E040208DF8000000AB0122BC
:100A20008D480068817C8C484068007801F07CFA31
:100A3000002805D08848002181725FF0FF304CE02B
:100A400085489DF8001011F0BF01017300208DF85A
:100A50000000600605D49DF8000050F004008DF8F9
:100A60000000A00605D49DF8000050F002008DF8AB
:100A70000000E00605D49DF8000050F001008DF85C
:100A80000000200705D49DF8000050F038008DF8D4
:100A9000000000AB012270480068C17C6E484068CD
:100AA000007801F041FA002805D06B4800218172DE
:100AB0005FF0FF3011E0E4B2002C05D0E4B2082C66
:100AC00002D00020FFF7F9FB6348847262480021DE
:100AD0000175322001F07CFA002016BD80B55E4918
:100AE00091F82410C0B2814201D100203FE0C0B291
:100AF000002826D0584890F82500002802D15FF041
:100B0000FF3034E00020FFF71CFC0020FFF7B1FEAF
:100B10005148C08CFFF74DFE00208DF8000000AB5F
:100B2000012223214C484068007801F0FDF94A4831
:100B3000012180F824100120FFF703FCFFF75DFC82
:100B400014E00020FFF7FDFB4348007C8DF8000017
:100B500000AB0122232140484068007801F0E4F90D
:100B60003D48002180F82410FFF747FC002002BD1B
:100B70003949097A002905D002290AD005D3032969
:100B80000BD00EE0FA2101800DE04FF4FA710180E4
:100B900009E04FF47A71018005E04FF4FA610180B9
:100BA00001E000210180002070472B49497A00298B
:100BB00005D0022911D00DD3032911D013E0022151
:100BC00001702549C97C002902D0017849000170D3
:100BD0000020704704210170F3E708210170F0E75D
:100BE00010210170EDE75FF0FF30F2E71A49C97A92
:100BF000012909D01AD303290CD008D305290FD015
:100C00000BD306290FD011E0BC21018010E0622136
:100C100001800DE02A2101800AE01421018007E013
:100C20000A21018004E00521018001E0002101800A
:100C300000207047084991F82410002902D05FF085
:100C4000FF3003E00449C989018000207047024950
:100C5000097C01700020704700000020F0B587B0CB
:100C600005000E00140001208DF8000000208DF812
:100C7000010000AB0222DFF8140C0068817CDFF871
:100C80000C0C4068007801F04FF9002802D05FF0AA
:100C9000FF302EE2C82001F09BF900208DF8000003
:100CA00000AB0122DFF8E40B0068C17BDFF8DC0B4E
:100CB0004068007801F038F9002802D05FF0FF307A
:100CC00017E200AB0122DFF8C40B00684179DFF8BE
:100CD000BC0B4068007801F027F9002802D05FF0D3
:100CE000FF3006E200AB0122DFF8A00B0068817C38
:100CF000DFF8980B4068007801F016F9002802D060
:100D00005FF0FF30F5E100AB0122DFF8800B0068F7
:100D1000C17DDFF8780B4068007801F005F9002804
:100D200002D05FF0FF30E4E100AB0122DFF85C0BA2
:100D300000680179DFF8540B4068007801F0F4F89E
:100D4000002802D05FF0FF30D3E10C208DF80000C6
:100D500000AB0122DFF8340B00680179DFF82C0BBF
:100D60004068007801F0E0F8002802D05FF0FF3022
:100D7000BFE10F2001F02CF9DFF8100B806A407AF8
:100D80008DF8000000AB0122DFF8000B00688178CD
:100D9000DFF8F80A4068007801F0C6F8002802D0B1
:100DA0005FF0FF30A5E1DFF8E40A806A007A8DF891
:100DB000000000AB0122DFF8D40A00684178DFF8B8
:100DC000CC0A4068007801F0AFF8002802D05FF04C
:100DD000FF308EE1E4B2002C08D0DFF8B00A806A60
:100DE000807A50F0E0008DF8000005E0DFF89C0A02
:100DF000806A807A8DF8000000AB0122DFF88C0A4F
:100E000000688179DFF8840A4068007801F08CF886
:100E1000002802D05FF0FF306BE1E4B2002C08D074
:100E2000DFF8680A806AC07A50F0E0008DF80000B0
:100E300004E0DFF8100DC07A8DF8000000AB01224D
:100E4000DFF8480A0068C179DFF8400A4068007896
:100E500001F06AF8002802D05FF0FF3049E1E4B207
:100E6000002C02D0C82001F0B3F840208DF800001B
:100E700000AB0122DFF8140A00680179DFF80C0AE0
:100E80004068007801F050F8002802D05FF0FF3091
:100E90002FE178208DF8000000AB0122DFF8EC098B
:100EA00000684179DFF8E4094068007801F03CF817
:100EB000002802D05FF0FF301BE1DFF8880C80894A
:100EC00001F086F800208DF8000000AB0122DFF869
:100ED000BC0900684179DFF8B4094068007801F086
:100EE00023F8002802D05FF0FF3002E100AB0222BD
:100EF000DFF898090068817ADFF890094068007887
:100F000001F030F8002802D05FF0FF30F1E09DF8EA
:100F100000009DF8011051EA002080B20C2190FBE6
:100F2000F1F40020A860686028600020B060706064
:100F3000306000274EE09DF800009DF8011051EA56
:100F40000020ADF814009DF802009DF8031051EA4E
:100F50000020ADF816009DF804009DF8051051EA38
:100F60000020ADF818003068BDF914100818306082
:100F70007068BDF9161008187060B068BDF91810D7
:100F80000818B0609DF806009DF8071051EA00208F
:100F9000ADF80C009DF808009DF8091051EA0020FA
:100FA000ADF80E009DF80A009DF80B1051EA0020E4
:100FB000ADF810002868BDF90C10081828606868A2
:100FC000BDF90E1008186860A868BDF9101008185F
:100FD000A8607F1CFFB2E4B2A74210D200AB0C2283
:100FE000DFF8A8080068C17ADFF8A0084068007838
:100FF00000F0B8FF00289ED05FF0FF3079E028684D
:10100000C117090441EA10410004DFF8382B1268C7
:10101000002300F0E9FFE4B22200002300F0E4FF27
:1010200028606868C117090441EA10410004DFF82C
:10103000142B1268002300F0D7FFE4B22200002333
:1010400000F0D2FF6860A868C117090441EA1041A6
:101050000004DFF8F02A1268002300F0C5FFE4B2B4
:101060002200002300F0C0FFA8603068C117090407
:1010700041EA10410004DFF8CC2A5268002300F056
:10108000B3FFE4B22200002300F0AEFF30607068CE
:10109000C117090441EA104100040FF6FC2252680E
:1010A000002300F0A1FFE4B22200002300F09CFF27
:1010B0007060B068C117090441EA104100040FF6DE
:1010C000D8225268002300F08FFFE4B222000023F0
:1010D00000F08AFFB060B068012805DBB068DFF877
:1010E000681A0818B06003E0B06810F58030B0608E
:1010F000002007B0F0BD30B583B0040000AB04227F
:101100000D21DFF888074068007800F02BFF0028E9
:1011100001D0072051E09DF80000C0B2C00810F0D7
:101120001C009DF80310C1F3011108438DF8040061
:101130009DF80100C0B2C00810F01C009DF803101B
:10114000C1F3810108438DF805009DF80200C0B28B
:10115000C00810F01C009DF8031011F003010843B3
:101160008DF80600002514E0EDB254F82500DFF8F4
:10117000DC1900F0E7FFEDB244F82500EDB201A85C
:10118000285C401EEDB201A96854C0B20028EBD122
:101190006D1CEDB2032D0FD2EDB201A8285C002822
:1011A00004D1EDB2002044F82500F1E7EDB2DFF8FC
:1011B000A00944F82500E1E700203EBDDFF8CC1689
:1011C000097A002905D002290CD007D303290DD0B4
:1011D00010E0DFF88019016000207047DFF878190F
:1011E0000160F9E7DFF874190160F5E7DFF87019BD
:1011F0000160F1E75FF0FF30EFE7DFF89016497A22
:10120000002905D0022915D010D3032916D019E0E2
:101210004FF480410180DFF87416C97C002903D0A7
:10122000018889B2490801800020704741F69C710D
:101230000180F0E74FF480510180ECE74FF400614A
:101240000180E8E75FF0FF30EFE72DE9FE438146DC
:101250008846002600A8FFF74EFF002711E0100087
:101260000FF63411C96900F0D9FF06D30FF6281024
:10127000006A110000F0D2FF02D20120B8400643FC
:101280007F1C032F34DA59F8270058F82710401A2A
:1012900000F0D6FF00F0D8FF5FF08F4100F0ECFFC8
:1012A000020000A850F82700002101F063F8D6D012
:1012B000100000A951F8271000F0DEFFDFF8A41895
:1012C00001F066F801F0B6F831F0004102000B00C1
:1012D00014001D000FF6C000406A01F0ABF82200B8
:1012E0002B0001F0CFF8CBD20120B8400643C7E76E
:1012F0003000BDE8FE830000100000202DE9F84317
:1013000081468846002600AB03220D21DFF87C05CC
:101310004068007800F026FE002801D0072070E029
:101320009DF8000010F01F008DF800009DF80100EE
:1013300010F01F008DF801009DF8020010F01F0052
:101340008DF80200002711E020000FF64C0109691A
:1013500000F064FF06D30FF640004069210000F062
:101360005DFF02D20120B84006437F1C032F47DAFD
:1013700059F8270058F82710401A00F061FF00F0D4
:1013800063FF5FF08F4100F077FF040000A8385C36
:101390000028D9D00FF60000006800F05FFF0100C0
:1013A000DFF8C40700F068FF010004E0DFF8BC07C5
:1013B00000F0C8FE010000A8385C401E00AAB85426
:1013C000C0B20028F2D1200000F056FFDFF89417D9
:1013D00000F0DEFF01F02EF831F0004102000B00BA
:1013E00014001D000FF2B070806901F023F8220094
:1013F0002B0001F047F8B8D20120B8400643B4E70B
:101400003000BDE8F2832DE9F04389B004000D00FF
:101410000226DFF8780490F82400002804D0002089
:10142000FFF75CFB012700E000270DF10600FFF746
:101430009FFB0DF10100FFF7B8FB0DF10200FFF774
:10144000D5FB01A8FFF7F6FBDFF8400490F80A800F
:1014500000A8FFF7FCFB5FF0000901E019F10109AA
:10146000F6B2B14506DA002229002000FFF7F6FBAC
:101470000028F3D1F6B2B14501D1002427E05FF096
:10148000000901E019F10109F6B2B14506DA0122BD
:1014900002A905A8FFF7E2FB0028F3D1F6B2B14597
:1014A00001D1002413E002A92800FFF7CEFE0500B9
:1014B00005A92000FFF722FF0024C0B2002801D1B7
:1014C00054F00104EDB2002D01D154F00204DFF814
:1014D000BC03FF210172DFF8B403FF214172DFF882
:1014E000AC03FF21C172DFF8A4034FF6FF71C18185
:1014F000DFF89803FF218172DFF89003FF21017468
:10150000DFF8880301210173BDF80600FEF7EEFD48
:101510009DF80100FEF737FEBDF80200FEF77DFEE4
:10152000BDF80400FFF745F94046C0B2FFF762FA84
:101530009DF80000FFF777F8FFB2002F02D00120DE
:10154000FFF7CCFA200009B0BDE8F08300B589B000
:1015500002A905A8FFF757FF032835D101A8FFF717
:101560002DFE059800F070FE019900F0EBFD00F0F3
:10157000A1FF0590069800F067FE019900F0E2FDDA
:1015800000F098FF0690079800F05EFE019900F0C9
:10159000D9FD00F08FFF079005A801F060F800A8C2
:1015A000FFF72BFE0298BDF8001048430290039805
:1015B000BDF80010484303900498BDF8001048435C
:1015C000049002A801F0EEF809B000BD38B50C0097
:1015D0001500002D02D15FF0FF3038E0AB49897A69
:1015E000002902D15FF0FF3031E080B2010A8DF8AE
:1015F00000108DF80100A548406840899DF8011051
:10160000A4B26118884202DA5FF0FF301FE000AB3D
:1016100002229E480068017E9C484068007800F0E5
:1016200083FC002802D05FF0FF3010E02B00220086
:10163000D2B296480068417D94484068007800F036
:1016400073FC002802D05FF0FF3000E0002032BDC4
:1016500038B50C001500002D02D15FF0FF3038E0E6
:101660008A49897A002902D15FF0FF3031E080B2E7
:10167000010A8DF800108DF8010084484068408907
:101680009DF80110A4B26118884202DA5FF0FF30C1
:101690001FE000AB02227D480068017E7B48406865
:1016A000007800F041FC002802D05FF0FF3010E02D
:1016B0002B002200D2B275480068417D7348406813
:1016C000007800F04FFC002802D05FF0FF3000E00F
:1016D000002032BDF8B504000D0016006B4890F8EC
:1016E0002400002802D15FF0FF305BE06748807A79
:1016F000002802D15FF0FF3054E000AB02226348C3
:101700000068817A61484068007800F02BFC00286E
:1017100002D05FF0FF3045E09DF800009DF8011019
:1017200051EA0027BFB2A4B2A74204D20020307011
:101730005FF0FF3036E055484068408880B240088E
:10174000BFB2B84217D200AB012250480068417CBA
:101750004E484068007800F005FC002802D05FF099
:10176000FF301FE09DF80000C00604D5FEF745FEDF
:101770007FF0010016E02B002200D2B2434800683F
:10178000C17A42484068007800F0ECFB002802D0A3
:101790005FF0FF3006E0BFB2A4B297FBF4F0401E4A
:1017A00030700020F2BD2DE9F04385B006000F0037
:1017B00014001D00354890F82500002802D05FF085
:1017C000FF3060E0002F02D15FF0FF305BE05FF0A0
:1017D000000801E019EB08081FFA88F8B6B2B04516
:1017E00035D2B6B21FFA88F8B6EB0800112802DB32
:1017F0005FF0100901E0B6EB08091FFA88F818EB52
:101800000702494689B2404680B2FFF7DFFE002852
:1018100002D05FF0FF3036E001AA494689B2404667
:1018200080B2FFF715FF002802D05FF0FF302AE0FA
:101830001FFA89F94A4601A91FFA88F818EB070030
:1018400002F092FA0028C5D07FF001001BE0A4B29C
:10185000200A8DF800008DF8014000AB02220B48F1
:101860000068817E09484068007800F05DFB002830
:1018700002D05FF0FF3006E00448012180F8251017
:101880000248C584002005B0BDE8F08300000020B8
:1018900090F90010012901DB00201EE090F90010F2
:1018A000002901D5042018E090F90110012901DB7D
:1018B000012012E090F90110002901D505200CE06B
:1018C00090F90210012901DB022006E090F90200E4
:1018D000002801D5062000E0072080B2704738B507
:1018E00004002000FFF7D4FF0500E01CFFF7D0FF45
:1018F00055EAC005A01DFFF7CBFF55EA801528006B
:1019000080B232BD00B583B000AB012298480068B8
:10191000017897484068007800F024FB002801D047
:101920000120E2E09DF80000682801D00220DCE000
:1019300080208DF8000000AB01228D480068817C7A
:101940008B484068007800F0EFFA002801D00320AF
:10195000CBE0642000F03CFB00208DF8000000ABE1
:10196000012283480068817C81484068007800F04B
:10197000DBFA002801D00420B7E000AB06227C4847
:101980000068817D7A484068007800F0EBFA002812
:1019900001D00520A9E09DF8050010F001009DF898
:1019A000031011F00101490051EA80009DF8011077
:1019B00011F001010843C0B200280FD0C0B20128C5
:1019C00003D16B480121C17429E0C0B2022803D1C0
:1019D00067480021C17422E0062086E000AB0122A6
:1019E00063480068C17862484068007800F0BAFA3D
:1019F000002801D0072078E09DF8000010F00F00CB
:101A0000C0B2002801D105206FE0C0B2042803D184
:101A100057480121C17402E055480021C17454485F
:101A2000FF2181725248FF2101725148FF2141720A
:101A30004F48FF21C1724E484FF6FF71C1814C489B
:101A4000FF2101744A48FF21817449480121017333
:101A50004748012180F822104548002180F82310D2
:101A60004348002141754248002101750C220021A4
:101A7000404802F0AAF93E48002180F824103C4872
:101A8000002180F825103A480021C1844FF4FA6003
:101A9000FEF72CFB002801D0102026E00220FEF7E4
:101AA00072FB002801D011201FE02A20FEF7B5FBB1
:101AB000002801D0122018E03220FEF77AFE00281C
:101AC00001D0132011E00020FEF7ADFD002801D069
:101AD00014200AE00020FEF7CCFE002801D01520DB
:101AE00003E00020FEF786FF00200EBD2DE9F04741
:101AF000FFF708FF7820FEF77DFF04007820FEF74F
:101B000092FD05006420FEF754FE060000F0F4FC90
:101B100007001948FFF7E3FE80B200F0F9FC8046A9
:101B200040F2731001F06DF88146642000F0DBFE96
:101B30008246FFF70BFD0120FEF7D0FF01000020D9
:101B4000BDE8F087981B00000000FFFF1D5A843F8E
:101B50007B14AE3E00000343000083423333034254
:101B600033338341000080BF00B04C4554E3853FD0
:101B700000000020160000207400002075191A0CC7
:101B80006A231B1C1F207274433B4138393A6B6C2B
:101B9000376F06246D6E700083000000000800009F
:101BA0000001001832000500000020410000D24270
:101BB000295C0F3E9A99993E3333733F295C0F3E5F
:101BC0006800000476005401F7FD000180B5012192
:101BD000042002F065F93020ADF8000002208DF8F5
:101BE000020014208DF8030000A9DFF8340302F08E
:101BF000A9F91021DFF8280302F015FA2021DFF8F7
:101C0000200302F010FADFF81C0300F001F801BD18
:101C1000401E0028FCD1704780B52021DFF800036A
:101C200002F001FA0A20FFF7F3FF1021DFF8F002BB
:101C300002F0F9F90A20FFF7EBFF2021DFF8E002BC
:101C400002F0E6F9002801D1012019E02021DFF897
:101C5000D00202F0EBF90A20FFF7DAFF1021DFF8DB
:101C6000C00202F0E3F90A20FFF7D2FF2021DFF8DB
:101C7000B00202F0CDF9002801D0022000E00020DF
:101C800002BD80B52021DFF8980202F0CFF90A20CA
:101C9000FFF7BEFF1021DFF8880202F0C4F90A2026
:101CA000FFF7B6FF2021DFF8780202F0BCF90A2026
:101CB000FFF7AEFF01BD80B52021DFF8640202F01E
:101CC000B5F90A20FFF7A4FF1021DFF8540202F053
:101CD000AAF90A20FFF79CFF1021DFF8440202F066
:101CE000A5F90A20FFF794FF01BD80B52021DFF898
:101CF000300202F098F90A20FFF78AFF1021DFF87E
:101D0000200202F090F90A20FFF782FF1021DFF88D
:101D1000100202F08BF90A20FFF77AFF01BD38B5F7
:101D200004001021DFF8F80102F080F9002518E026
:101D30002021DFF8EC0102F079F964000A20FFF7B6
:101D400067FF1021DFF8D80102F06DF90A20FFF7D4
:101D50005FFF1021724802F069F90A20FFF758FF6F
:101D60006D1CEDB2082D06D22006E1D520216C486D
:101D700002F059F9E1E72021694802F054F90A20FC
:101D8000FFF746FF1021664802F04DF90A20FFF7E1
:101D90003FFF2021624802F03BF9002805D01021C6
:101DA0005F4802F043F9002004E010215C4802F093
:101DB0003DF9012032BD38B52021594802F033F9F0
:101DC0001021574802F032F90025002417E01021B5
:101DD000534802F028F90A20FFF71AFF6D0020216E
:101DE0004F4802F015F9002801D055F001051021E7
:101DF0004B4802F01BF90A20FFF70AFF641CE4B20B
:101E0000082CE4D3FFF771FF2800C0B232BD38B50B
:101E10002021434802F007F91021414802F006F959
:101E20000025002417E010213D4802F0FCF80A20AC
:101E3000FFF7EEFE6D002021394802F0E9F8002896
:101E400001D055F001051021354802F0EFF80A20C5
:101E5000FFF7DEFE641CE4B2082CE4D3FFF72BFF8F
:101E60002800C0B232BDF8B5040000261FE01021E2
:101E70002B4802F0D8F80A20FFF7CAFE7F00202185
:101E8000274802F0C5F8002801D057F001071021BB
:101E9000234802F0CBF80A20FFF7BAFE6D1CEDB222
:101EA000082DE4D3F6B23755FFF705FF761CF6B2DE
:101EB000052E0AD220211A4802F0B5F81021184840
:101EC00002F0B4F800270025E9E72021144802F0C9
:101ED000AAF81021124802F0A9F80027002517E0FF
:101EE00010210F4802F09FF80A20FFF791FE7F00B3
:101EF00020210B4802F08CF8002801D057F0010790
:101F00001021074802F092F80A20FFF781FE6D1CAD
:101F1000EDB2082DE4D36771FFF7E7FEF1BD0000D5
:101F200000080140A0860100F8B504000D0016006D
:101F30001F00FFF771FE6000C0B2FFF7F0FE28003F
:101F4000C0B2FFF7ECFE002404E0E4B2E05DFFF76E
:101F5000E6FE641CE4B2F6B2B442F6D3FFF791FE9B
:101F60000020F2BDF8B504000D0016001F00FFF7B9
:101F700053FE6000C0B2FFF7D2FE2800C0B2FFF7E8
:101F8000CEFEFFF749FE600050F00100C0B2FFF73F
:101F9000C6FE04E0FFF73BFF38707F1C761EF6B2EA
:101FA000002E06D0F6B2012EF4D1FFF704FF3870F0
:101FB000F3E7FFF766FE0020F2BD0100481E00298E
:101FC00005D00021C9B20A29F7D2491CFAE77047A7
:101FD00010B5040003E04FF47A70FFF7EEFF200025
:101FE000441E0028F7D110BD13F0004C03D55B420E
:101FF000524263F100039CEA210C15D11B4229D106
:1020000009424CD12AB18446B0FBF2F002FB10C267
:10201000704702F00FB8FCD30022002370470B007A
:10202000020000210020704710B5644603D34942E6
:10203000404261F10001FFF7E1FF640004D349422F
:10204000404261F10001244203D55B42524263F1F8
:10205000000310BD904271EB030CE0D370B5B1FAF0
:1020600081F4B3FA83F52C1BA340C4F1200532FAA6
:1020700005F63343A2405FF00046E64002E05B080D
:102080005FEA3202841A71EB030524BF2046294619
:102090007641F4D302000B003000002170BD012A0C
:1020A000B9D970B5140C20D0B1FA81F4B2FA82F526
:1020B000C4F120046419B4F12006D6D3B2405FF015
:1020C0000044F440002502E052085FEA3303C61AD8
:1020D00071EB020E24BF3046714664416D41F3D36B
:1020E00002000B002000290070BD0C46B1FBF2F18C
:1020F00002FB11452D0445EA1045B5FBF2F402FB45
:10210000145580B240EA0545B5FBF2F002FB1052CF
:1021100040EA044070BD10B450F8041B81B102685D
:102120001218001D50F8043BDC0744BFA9F101045C
:10213000E31852F8044B43F8044B091FF9D1EBE7BD
:1021400010BC7047FF2212EAD05C1DBF12EAD153C7
:10215000944593422BE09C44D30780EA01021A4045
:1021600043EA002043EA0121A1FB0030410038BFCF
:1021700040007CF17F010BDBFE294ADA5B0842EA72
:10218000C15153EA006373F1004C51EB10207047CA
:10219000D1F1080CDCF120012FDB5B0810FA01F112
:1021A0000B4373F1004120FA0CF050417047944505
:1021B0001CBF02EAD153934280EA010202F00042BE
:1021C0001DD0400019D0490017D05BB9634514D029
:1021D0000902B1FA81F39940BCEB030CC00140F055
:1021E0000040C1E70002B0FA80FC10FA0CF0B3EB3B
:1021F0000C0CC90141F00041B6E7100070474000E7
:102200000AD0490008D010F1807F94BF11F1807F7F
:1022100002E042F0FF407047D04370474FF0807CAF
:102220001CEB400F94BF1CEB410F05E040EA010C92
:102230005FEA4C0C01D28842704718BF8142704758
:10224000002848BF40427047002840F10880F4460B
:10225000404200F004F850F00040604700280AD0E7
:10226000B0FA80F18840D1F19D01C905020672F1F2
:10227000004241EB1020704710B5FF2313EAD05401
:102280001DBF13EAD1529C429A4239E0A41ADA07E0
:1022900080EA0103134042EA012142EA0020421A87
:1022A0003CBF641E01EB4202090AB2FBF1FE01FBD6
:1022B0001E221202B2FBF1F001FB10226EF30F207E
:1022C0001202B2FBF1FE4EEA00207F3406DDFE2C46
:1022D00024DA53EA500050EBC45010BDD4F102048C
:1022E00001FB1E2240F08071192C1DDC21FA04F044
:1022F000C4F12004A140114371F10042584110BDC6
:102300009C421ABF03EAD1529A420FE080EA010EC2
:102310000EF00043400004D0490016D143F0FF40C6
:1023200010BD490008BFD343180010BD9C4205D121
:10233000D21AF7D001F00041484010BD4A0212BF46
:102340000846484000F0004010BD4AB90902B1FA01
:1023500081F2914044B1A418C00140F000409EE7D2
:10236000C90141F0004152420002B0FA80F4A0409D
:10237000141B94E740EA010C5FEA4C0C07D088423A
:1023800005D14FEA400C1CF1807F98BF8042704716
:1023900090EA010F44BF81F0004101F054BE421A9F
:1023A0003CBF801A89184FF0004CC0F3C752FF2A77
:1023B00024D0C1F3C75313B3D21AD2F1190327DDC6
:1023C0004CEA01214CFA03F321EA0303D140C20D88
:1023D0004CEA0020401834BF20EA0C004CEA5000C0
:1023E000D20553EA006373EB0C0C52EB1020420051
:1023F00012F1807F38BF7047C00DC0057047490299
:1024000012BF9A4200EB5120F8E7D2F11703D9D559
:10241000704750F8041B61B150F8042BD30744BF38
:10242000A9F101039A18002342F8043B091FFAD1CD
:10243000EFE770475FF0FF0C1CEAD05114BF614515
:1024400006E0C110400721F0E04101F16051704702
:1024500079B900F0004100020AD0B0FA80FC00FA1D
:102460000CF001F16051A1EB0C5101EBD0214005C2
:10247000704741020CBF40F4E0016FF00001002002
:10248000704700004FF4001C1CEB410F94BF1CEB85
:10249000430F09E041EA030C50EA4C0C52EA0C0CE1
:1024A00003D2994208BF9042704714BF8B428242C8
:1024B000704700004100090E7F3915D4D1F11F018A
:1024C00014D4400007D2C00140F00040C84048BFCB
:1024D0006FF000407047C00140F00040C8404CBF62
:1024E0004FF00040404270470020704700424FF0DC
:1024F000004058BFC043704780B5C8230FF66C40FA
:1025000002880FF66C4140F6F630FFF74CF902BD39
:1025100010B586B0040003A80FF61C410A680260DB
:1025200002A80FF618410A68026005A80FF61041CC
:102530000A68026004A80FF60C410A680260A4B29F
:1025400014F0030003A9405C8DF80400C4F3C1003B
:1025500080B203A9405C8DF80500C4F3811080B2FD
:1025600003A9405C8DF80600A4B214F0030002A990
:10257000405C8DF80000C4F3C10080B202A9405C49
:102580008DF80100C4F3811080B202A9405C8DF87F
:10259000020001AA032140F22640FFF717F80028A5
:1025A00002D05FF0FF3058E000AA032140F22A4039
:1025B000FFF70CF8002802D05FF0FF304DE0032257
:1025C00005A901A801F0A9FD032204A900A801F0B2
:1025D000A4FD60070BD59DF8040050F001008DF8B4
:1025E00004009DF8000050F001008DF80000A006E6
:1025F0000BD59DF8050050F001008DF805009DF801
:10260000010050F001008DF80100E0050BD59DF8A8
:10261000060050F001008DF806009DF8020050F011
:1026200001008DF8020001AA03214FF48860FEF733
:10263000CDFF002802D05FF0FF300EE000AA03219A
:1026400040F23140FEF7C2FF002802D05FF0FF30B9
:1026500003E0DFF8C80A0481002006B010BD00B511
:1026600085B0DFF8B81A097A11F0030150F821108B
:102670000191DFF8A81A097A490704D501995FF09A
:10268000FF3251430191DFF8941A0989C1F3C10166
:1026900089B250F821100291DFF8801A097A890670
:1026A00004D502995FF0FF3251430291DFF86C1AB2
:1026B0000989C1F3811189B250F821000390DFF834
:1026C0005C0A0089C00504D503985FF0FF314843D8
:1026D00003900198DFF8481A81FB0001800F40EA5F
:1026E0008100891701900298DFF8341A81FB0001FC
:1026F000800F40EA8100891702900398DFF8201AC2
:1027000081FB0001800F40EA810089170390019846
:1027100000168DF80000019800148DF80100019852
:1027200000128DF8020001988DF8030000AA042120
:102730004FF47470FEF74AFF002802D05FF0FF30BC
:102740002EE0029800168DF80000029800148DF813
:102750000100029800128DF8020002988DF8030023
:1027600000AA04214FF47570FEF730FF002802D054
:102770005FF0FF3014E0039800168DF80000039816
:1027800000148DF80100039800128DF802000398E0
:102790008DF8030000AA04214FF47670FEF716FFAF
:1027A00005B000BD30B587B0040006A8FEF725FDD2
:1027B000BDF818200023DB0343EA5243D203DFF8BD
:1027C0005C09007A10F0030054F820000090DFF854
:1027D0004C09007A400704D500985FF0FF31484368
:1027E0000090DFF838090089C0F3C10080B254F8C6
:1027F00020000190DFF82409007A800604D50198B2
:102800005FF0FF3148430190DFF810090089C0F301
:10281000811080B254F820000290DFF8000900898E
:10282000C00504D502985FF0FF3148430290009C38
:10283000E517A2FB040102FB051103FB0411800F45
:1028400040EA810089170090019CE517A2FB040172
:1028500002FB051103FB0411800F40EA8100891778
:1028600001900298C117A2FB004502FB015503FB32
:102870000055A40F44EA8504AD1702940098001691
:102880008DF80C00009800148DF80D0000980012CF
:102890008DF80E0000988DF80F00019800168DF845
:1028A0001000019800148DF81100019800128DF8A5
:1028B000120001988DF81300029800168DF814008C
:1028C000029800148DF81500029800128DF8160079
:1028D00002988DF8170003AA0C214FF42570FEF71B
:1028E00075FE07B030BD30B585B0040002A80FF604
:1028F00058012CC92CC00C390C38A4B2C92C02D3F5
:102900005FF0FF3024E0C820A4B290FBF4F0401E3A
:1029100080B2010A8DF800108DF8010000AA022192
:1029200040F21620FEF752FE002802D05FF0FF3082
:102930000EE002AA0C2140F6C120FEF747FE002857
:1029400002D05FF0FF3003E0DFF8D0078481002081
:1029500005B030BD7CB50400080007210C4204D04E
:1029600040F2416180B2884202D35FF0FF30AFE0B5
:1029700080B2FFF773FCDFF8AC17FFF77DFC0500B2
:1029800001A8FEF712F99DF80400022806D00428D9
:102990002CD008283AD0102848D057E05FF08D405E
:1029A0002900FFF7CFFBFFF785FD0600DFF878076A
:1029B0002900FFF7C7FBFFF77DFDB6B2310A8DF89E
:1029C00000108DF8016080B2010A8DF802108DF8B8
:1029D0000300E00749D500AA02214FF4EA70FEF790
:1029E000F5FD002835D05FF0FF3071E05FF08C40DE
:1029F0002900FFF7A7FBFFF75DFD0600DFF82C07B6
:102A00002900FFF79FFBFFF755FDD6E75FF08B40EE
:102A10002900FFF797FBFFF74DFD0600DFF81007D1
:102A20002900FFF78FFBFFF745FDC6E75FF08A40FF
:102A30002900FFF787FBFFF73DFD0600DFF8F406EE
:102A40002900FFF77FFBFFF735FDB6E75FF0FF30AA
:102A50003EE00DF1020202214FF49270FEF7B6FD46
:102A6000002802D05FF0FF3032E0A00716D500AAA0
:102A700002214FF4EC70FEF7A9FD002802D05FF0B0
:102A8000FF3025E00DF1020202214FF49470FEF7B1
:102A90009DFD002802D05FF0FF3019E0600716D5D9
:102AA00000AA02214FF4EE70FEF790FD002802D03C
:102AB0005FF0FF300CE00DF1020202214FF496703E
:102AC000FEF784FD002802D05FF0FF3000E0002018
:102AD00076BD80B500218DF80010C10705D59DF8A1
:102AE000001051F030018DF80010810705D59DF8D8
:102AF000001051F00C018DF80010400705D59DF82D
:102B0000000050F003008DF8000000AA01214FF4EE
:102B1000A470FEF75BFD02BD80B5C0B2012801D2F2
:102B2000012003E0C0B2052800D30420401E8DF828
:102B3000000000AA012140F24F10FEF747FD02BD40
:102B400080B580B2052190FBF1F080B2010A8DF8CA
:102B500000108DF8010000AA02214FF4EF70FEF77B
:102B600035FD02BD80B580B2052190FBF1F080B249
:102B7000010A8DF800108DF8010000AA02214FF41F
:102B8000ED70FEF723FD02BD80B54FF47A7290FB25
:102B9000F2F089B2484301168DF8001001148DF847
:102BA000011001128DF802108DF8030000AA042113
:102BB0004FF4AE70FEF70AFD02BD80B580B205216C
:102BC00090FBF1F080B2010A8DF800108DF8010041
:102BD00000AA02214FF4AD70FEF7F8FC02BD80B5EB
:102BE00080B2052190FBF1F080B2010A8DF800104F
:102BF0008DF8010000AA02214FF4AC70FEF7E6FC4C
:102C000002BD10B584B0040002208DF80000CA2077
:102C10008DF80100E3208DF8020009208DF80300F3
:102C200000AA04216820FEF7D1FCA3208DF8000043
:102C3000600609D5C0208DF80100C8208DF802007B
:102C4000C2208DF8030008E0A3208DF80100A32026
:102C50008DF80200A3208DF803004FF4C0700442E9
:102C600009D0C4208DF80400CC208DF80500C620C2
:102C70008DF8060008E0A3208DF80400A3208DF84D
:102C80000500A3208DF80600A3208DF80700A320DF
:102C90008DF80800A3208DF8090000AA0A2140F64B
:102CA000A720FEF793FC0320044203D020208DF8D8
:102CB000000002E0D8208DF8000000AA012140F6B3
:102CC000B620FEF783FCA00603D5012000F0ACF887
:102CD00002E0002000F0A8F84FF4C070044220D0B9
:102CE000E0050CD5B2208DF800008B208DF8010096
:102CF000B6208DF802009B208DF803000BE0B02079
:102D00008DF8000080208DF80100B4208DF80200BD
:102D100090208DF8030000AA042140F6A220FEF7BF
:102D200055FCE00725D5F8208DF8000000AA012108
:102D30004FF40B60FEF74AFCFA210720FFF70AFE6A
:102D40000720FFF7C6FE0120FFF7E6FE6420FFF72D
:102D5000F7FE4FF4FA70FFF705FFC821DFF8C00354
:102D6000FFF712FF2820FFF728FF0A20FFF737FFA1
:102D700008E0D8208DF8000000AA01214FF40B6074
:102D8000FEF724FCA00703D5D9208DF8000002E04F
:102D9000D8208DF8000000AA012140F23D70FEF716
:102DA00015FC600703D5012000F060F802E0002068
:102DB00000F05CF8E00603D5012000F076F802E0B0
:102DC000002000F072F8DFF8540354F0080141814C
:102DD000FDF713FBDFF8440300218173600606D57D
:102DE000DFF83803807B801DDFF8301388734FF4E1
:102DF000C070044205D0DFF82403807B801DC749E2
:102E000088731420044204D0C448807B1030C34926
:102E100088730320044204D0C048807B001DBF4952
:102E20008873002004B010BD10B586B0C0B2002871
:102E30000DD003A80FF21C311CC91CC00C390C3872
:102E400003AA09214FF49760FEF7C0FB0CE000A82D
:102E50000FF20C311CC91CC00C390C3800AA092116
:102E60004FF49760FEF7B2FB06B010BD80B5C0B25C
:102E700000280CD0C0208DF80000C2208DF8010081
:102E8000C4208DF80200C6208DF8030004E004225F
:102E90008B2100A800F099FF00AA042140F6982099
:102EA000FEF794FBFDF7A9FA02BD80B5C0B2002879
:102EB0000CD020208DF8000028208DF80100302053
:102EC0008DF8020038208DF8030004E00422A321CD
:102ED00000A800F07AFF00AA042140F69E20FEF729
:102EE00075FBFDF78AFA02BD38B50400E07810F0F2
:102EF000C005E07810F03F016078C00711D5C9B275
:102F0000C808C9B2082291FBF2F303FB1213591C43
:102F1000824A1268002A04D0C9B2C0B27F4A12683D
:102F200090476078000708D57C484068002804D0A6
:102F3000EDB2A809794949688847002032BD2DE9DA
:102F4000F0418CB004000D009046129E139A0027A9
:102F50000020308000A97148807B80B2FEF7BAFB68
:102F6000002802D05FF0FF30D4E06C48807A142152
:102F7000084270D09DF800009DF80110090451EA44
:102F800000609DF8021050EA01209DF803100843EC
:102F9000C8F800009DF804009DF80510090451EAE6
:102FA00000609DF8061050EA01209DF807100843C4
:102FB000C8F804009DF808009DF80910090451EABA
:102FC00000609DF80A1050EA01209DF80B1008439C
:102FD000C8F808009DF80C009DF80D10090451EA8E
:102FE00000609DF80E1050EA01209DF80F10084374
:102FF000C8F80C001037D8F8000000140890D8F872
:10300000040000140990D8F8080000140A90D8F8B9
:103010000C0000140B9008980899099A099B5A43D0
:1030200001FB00200A990A9A02FB01000B990B9AF6
:1030300002FB0100B0F17060B0F1007F06D9FDF72E
:10304000DCF9002030805FF0FF3063E030884FF41F
:103050008071084330803148807A400624D5FFB221
:1030600000A8385CFFB200A97918497851EA00201D
:103070002880FFB200A838188078FFB200A979181C
:10308000C97851EA00206880FFB200A8381800799A
:10309000FFB200A97918497951EA0020A880BF1D24
:1030A000308850F0080030801C4840894FF4C071CF
:1030B000084224D0FFB200A8385CFFB200A97918FA
:1030C000497851EA00202080FFB200A838188078A3
:1030D000FFB200A97918C97851EA00206080FFB2D8
:1030E00000A838180079FFB200A97918497951EA87
:1030F0000020A080BF1D308850F07000308007484D
:10310000807A0321084204D0FFB200A83818FFF7E4
:10311000EBFE00200CB0BDE8F0810000D8000020DC
:1031200009E3CA0200004843000040460000C045D1
:10313000000040450000C0444CCD6C000CC92C0080
:103140003656760026466600FEF2ABC4AAF1DFDFF3
:10315000BBAFDFDFB8AAB38DB4980D355D000000BA
:10316000B8AAAAAAB088C3C5C7000000000400001E
:1031700000007000000000240000000200030000B6
:1031800000650054FFEF0000FA80000B128200017E
:10319000030C30C30E8C8CE914D5400213710F8ED2
:1031A0003883F8833000F883258EF8833000F88365
:1031B000FFFFFFFF0FFEA9D6240004001A8279A1A9
:1031C0000000003CFFFF00000010000038836FA2E9
:1031D000003E03304000000002CAE3093E800000C8
:1031E000200000000000000040000000600000001F
:1031F000000C0000000C186E000006920A16C0DFDA
:10320000FFFF0256FD8CD377FFE1C496E0C5BEAA4E
:1032100000000000FFFF0B2B0000165700000359B1
:103220004000000000001DFA00026C1D00000000BC
:103230003FFFDFEB003EB3B6000D227800002F3CCD
:1032400000000000001942B5000039A20000B3657B
:10325000D90E9FC91DCF4C34300000005000000033
:103260003BB67AE80064000000C8000000000000DF
:10327000100000001000FA921000225E000D229F44
:103280000001000000320000FF46000063D400008F
:103290001000000004D6000004CC000004CC0000A4
:1032A000000010720000004000000000000000005C
:1032B0000006000200050007000000000064000096
:1032C0000000000000000005000500640020000070
:1032D00000000000000000000000400000000300AB
:1032E00000000032F8980000FF650000830F000026
:1032F000FF9BFC0000000000000000000000000038
:1033000000000000000000000000000000000000BD
:10331000000000000000000000000000000010009D
:1033200040000000000000060000B26A0002000039
:103330000001FB830068000000D9FC007CF1FF83E2
:103340000000000000650000006403E8006400283D
:10335000000000250000000016A000000000100082
:1033600000001000002F0000000001F40000100019
:1033700000280000FFFF4581FFFFFA7200000000F7
:1033800000000000004400050005BAC6004778A20E
:103390000000000100000000000006000000001412
:1033A0000000254D002F706D000005AE000C02D00E
:1033B000000000000000000000000000000000000D
:1033C000001B0000000000000000000000000000E2
:1033D0000064000000080000000000000000000081
:1033E00000000000000000000000000000000000DD
:1033F00000000000000000000000000000000000CD
:1034000000000000000000000000000000000000BC
:1034100000000000000000000000000000000000AC
:10342000000000000000000000000000000000009C
:10343000001B00000000000000000000000E000E55
:1034400000000AC70004000000000032FFFFFF9CDC
:1034500000000B2B000000020000000100000064CF
:10346000FFE5000000000000000000000000000078
:10347000000000010000000000010000000000004A
:10348000000180000001800000018000002426D39C
:103490000000000000000000000600100096003C44
:1034A000000000000000000000000000000000001C
:1034B0000C0A4E68CDCF770950166759C619CE82CF
:1034C00000000000000000000000000000000000FC
:1034D000000000000000000017D784000300000077
:1034E0000000000000000000C7938F9D1E1B1C19E8
:1034F00000000000000000000000000000000000CC
:1035000000000000000000000203188500004000D9
:1035100000000003000000030000000000000000A5
:10352000400000000000000000000000000000005B
:10353000000000000000000000000000000000008B
:10354000000000000000000000000000000000007B
:1035500000000000677DDF7E72902E554CF6E688F5
:10356000000000000000000000000000000000005B
:10357000D8DCB4B8B0D8B9ABF3F8FAB3B7BB8E9E09
:10358000AEF132F51BF1B4B8B08097F1A9DFDFDFFF
:10359000AADFDFDFF2AAC5CDC7A90CC92C97F1A914
:1035A00089264666B28999A92D557DB0B08AA8961C
:1035B000365676F1BAA3B4B280C0B8A89711B283D8
:1035C00098BAA3F0240844106418B2B9B49883F1EF
:1035D000A329557DBAB5B1A38393F0002850F5B265
:1035E000B6AA839328547CF1B9A3829361BAA2DA74
:1035F000DEDFDB819AB9AEF5606870F1DABAA2DF7E
:10360000D9BAA2FAB9A38292DB31BAA2D9BAA2F886
:10361000DF85A4D0C1BBAD83C2C5C7B8A2DFDFDFE1
:10362000BAA0DFDFDFD8D8F1B8AAB38DB4980D35D2
:103630005DB2B6BAAF8C96198F9FA70E161EB49ABC
:10364000B8AA872C547CBAA4B08AB691325676B206
:103650008494A4C808CDD8B8B4B0F19982A82D55E7
:103660007D98A80E161EA22C547C92A4F02C5078A3
:10367000F184A898C4CDFCD80DDBA8FC2DF3D9BAF1
:10368000A6F8DABAA6DED8BAB2B68696A6D0F3C83D
:1036900041DAA6C8F8D8B0B4B882A892F52C5488FC
:1036A00098F135D9F418D8F1A2D0F8F9A884D9C77F
:1036B000DFF8F883C5DADF69DF83C1D8F40114F1DC
:1036C000A8824EA884F311D182F5D992289788F167
:1036D00009F41C1CD884A8F3C0F9D1D99782F12928
:1036E000F40DD8F3F9F9D1D982F4C203D8DEDF1A88
:1036F000D8F1A2FAF9A88498D9C7DFF8F8F883C7F7
:10370000DADF69DFF883C3D8F40114F198A8822EB8
:10371000A884F311D182F5D992509788F109F41C4D
:10372000D884A8F3C0F8F9D1D99782F149F40DD81B
:10373000F3F9F9D1D982F4C403D8DEDFD8F1AD882A
:1037400098CCA809F9D98292A8F57CF1883ACF944F
:103750004A6E98DB6931DAADF2DEF9D88795A8F2C6
:1037600021D1DAA5F9F417D9F1AE8ED0C0C3AE825B
:10377000C684C3A88595C8A588F2C0F1F4010EF1EE
:103780008E9EA8C63E56F554F18872F40115F19844
:1037900045856EF58E9E0488F142985A8E9E068865
:1037A00069F4011CF1981E1108D0F504F11E97026E
:1037B00002983625DBF9D985A5F3C1DA85A5F3DFB3
:1037C000D88595A8F309DAA5FAD88292A8F578F1F8
:1037D000881A849F26889821DAF41DF3D8879F39A8
:1037E000D1AFD9DFDFFBF9F40CF3D8FAD0F8DAF96E
:1037F000F9D0DFD9F9D8F40BD8F3879F39D1AFD9F5
:10380000DFDFF41DF3D8FAFCA869F9F9AFD0DADEEE
:10381000FAD9F88F9FA8F1CCF398DB45D9AFDFD068
:10382000F8D8F18F9FA8CAF38809DAAF8FCBF8D800
:10383000F2AD978D0CD9A5DFF9BAA6F3FAF412F21E
:10384000D8950DD1D9BAA6F3FADAA5F2C1BAA6F382
:10385000DFD8F1BAB2B68696A6D0CAF349DAA6CBBB
:10386000F8D8B0B4B8D8AD84F2C0DFF18FCBC3A81C
:10387000B2B68696C8C1CBC3F3B0B48898A821DB92
:10388000718D9D71859521D9ADF2FAD88597A828BB
:10389000D9F408D8F28D29DAF405D9F285A4C2F258
:1038A000D8A88D9401D1D9F411F2D88721D8F40A7F
:1038B000D8F28498A8C801D1D9F411D8F3A4C8BB10
:1038C000AFD0F2DEF8F8F8F8F8F8F8F8D8F1B8F672
:1038D000B5B9B08A95A3DE3CA3D9F8D85CA3D9F8D2
:1038E000D87CA3D9F8D8F8F9D1A5D9DFDAFAD8B1BC
:1038F0008530F7D9DED8F830ADDADED8F2B48C995D
:10390000A32D557DA083DFDFDFB591A0F629D9FB7C
:10391000D8A0FC29D9FAD8A0D051D9F8D8FC51D9CF
:10392000F9D879D9FBD8A0D0FC79D9FAD8A1F9F97E
:10393000F9F9F9A0DADFDFDFD8A1F8F8F8F8F8AC88
:10394000DEF8ADDE8393AC2C547CF1A8DFDFDFF62C
:103950009D2CDAA0DFD9FADB2DF8D8A850DAA0D058
:10396000DED9D0F8F8F8DB55F8D8A878DAA0D0DF9F
:10397000D9D0FAF8F8F8F8DB7DF8D89CA88CF530A7
:10398000DB38D9D0DEDFA0D0DEDFD8A848DB58D9BD
:10399000DFD0DEA0DFD0DED8A868DB70D9DFDFA003
:1039A000DFDFD8F1A888902C547C98A8D05C38D15F
:1039B000DAF2AE8CDFF9D8B087A8C1C1B188A8C649
:1039C000F9F9DA36D8A8F9DA36D8A8F9DA36D8A863
:1039D000F9DA36D8A8F9DA36D8F78D9DADF818DAC5
:1039E000F2AEDFD8F7ADFA30D9A4DEF9D8F2AEDE08
:1039F000FAF983A7D9C3C5C7F1889BA77AADF7DECB
:103A0000DFA4F8849408A797F300AEF29819A4886D
:103A1000C6A39488F632DFF28393DB09D9F2AADFDA
:103A2000D8D8AEF8F9D1DAF3A4DEA7F1889B7AD81A
:103A3000F38494AE19F9DAAAF1DFD8A881C0C3C51E
:103A4000C7A39283F628ADDED9F8D8A350ADD9F834
:103A5000D8A378ADD9F8D8F8F9D1A1DADEC3C5C7B3
:103A6000D8A18194F818F2B089ACC3C5C7F1D8B811
:103A7000B4B09786A8319B069907AB9728889BF02E
:103A80000C201440B0B4B8F0A88A9A285078B79B9C
:103A9000A8295179247059446938644831F1BBAB85
:103AA00088002C547CF0B38BB8A804285078F1B06F
:103AB00088B49726A85998BBABB38B02264666B04C
:103AC000B8F08A9CA82951798B2951798A24705998
:103AD0008B2058718A4469388B3940688A64483130
:103AE0008B30496088F1AC002C547CF08CA8042801
:103AF0005078F1889726A85998AC8C02264666F033
:103B0000899CA8295179247059446938644831A99D
:103B10008809205970AB11384069A8193148608C68
:103B2000A83C415C207C00F187981986A86E767EBF
:103B3000A999882D557DD8B1B5B9A3DFDFDFAED007
:103B4000DFAAD0DEF2ABF8F9D9B087C4AAF1DFDF83
:103B5000BBAFDFDFB9D8B1F1A3978E60DFB084F2DD
:103B6000C8F8F9D9DED89385F14AB183A308B583A3
:103B70009A0810B79F10D8F1B0BAAEB08AC2B2B6E8
:103B80008E9EF1FBD9F41DD8F9D90CF1D8F8F8AD17
:103B900061D9AEFBD8F40CF1D8F8F8AD19D9AEFB69
:103BA000DFD8F416F1D8F8AD8D61D9F4F4ACF59CFA
:103BB0009C8DDF2BBAB6AEFAF8F40BD8F1AED0F884
:103BC000AD51DAAEFAF8F1D8B9B1B6A3839C08B911
:103BD000B1839AB5AAC0FD3083B79F10B58B93F21D
:103BE0000202D1ABDADED8F1B080BAABC0C3B28486
:103BF000C1C3D8B1B9F38BA391B609B4D9ABDEB0C8
:103C0000879CB9A3DDF1B38B8B8B8B8BB087A3A380
:103C1000A3A3B28BB69BF2A3A3A3A3A3A3A3A3A323
:103C2000A3F1B087B59AA3F39BA3A3DCBAACDFB929
:103C3000A3A3A3A3A3A3A3A3A3A3A3A3A3A3A3A354
:103C4000D8D8D8BBB3B7F1AAF9DAFFD9809AAA2895
:103C5000B48098A720B79787A86688F07951F1902B
:103C60002C870CA781976293F0717160859401296C
:103C7000517990A5F1284C6C870C95188578A38311
:103C800090284C6C886CD8F3A28200F210A892198C
:103C900080A2F2D926D8F188A84DD948D896A8395B
:103CA00080D93CD89580A839A68698D92CDA87A7E0
:103CB0002CD8A8899519A980D938D8A88939A9807C
:103CC000DA3CD8A82EA83990D90CD8A8953198D923
:103CD0000CD8A809D9FFD801DAFFD89539A9DA2676
:103CE000FFD890A80D8999A810809821DA2ED8893C
:103CF00099A83180DA2ED8A886963180DA2ED8A8F5
:103D0000873180DA2ED8A88292F34180F1D92ED85B
:103D1000A882F31980F1D92ED882ACF3C0A28022F8
:103D2000F1A62EA72EA92298A829DAACDEFFD8A2E8
:103D3000F22AF1A92E8292A8F23180A696F1D9003A
:103D4000AC8C9C0C30ACDED0DEFFD88C9CACD010A0
:103D5000ACDE8092A2F24C82A8F1CAF235F19688CC
:103D6000A6D900D8F1FF00000300002013F0030FD4
:103D700009D0521E22BF13F8010B11F801CBB0EB92
:103D80000C00F3D07047121F22BF53F8040B51F8F8
:103D900004CB6045F7D0121D0AD200BA9CFA8CFC05
:103DA000B0EB0C0038BF6FF0000088BF01207047F7
:103DB000521E22BF13F8010B11F801CBB0EB0C001F
:103DC000F6D0521C08BF1046704710B50400100012
:103DD0000A000100200000F0A7F9200010BD00003B
:103DE00030B400220021002300244D4D2D6815F031
:103DF0000C052A00002A04D0042A05D0082A06D07F
:103E000021E04849016020E0464901601DE0444945
:103E1000096811F47011424A126812F48033890C57
:103E2000891C002B03D1404A514301600AE03C4AFF
:103E30001268920303D53C4A5143016002E0394ABB
:103E40005143016001E0374901603549096811F0CB
:103E5000F00212093549545C0168E1404160304983
:103E6000096811F4E062120A3049545C4168E1408B
:103E700081602B49096811F46052D20A2B49545CC5
:103E80004168E140C1602649096811F44042920B43
:103E90002749545CC168B1FBF4F1016130BC704743
:103EA000C9B2002905D0234909680843214908609F
:103EB00005E02049096831EA00001E4908607047A2
:103EC000C9B2002905D01C49096808431A4908608D
:103ED00005E01949096831EA000017490860704790
:103EE000C9B2002905D0154909680843134908607B
:103EF00005E01249096831EA00001049086070477E
:103F0000C9B2002905D00E49096808430C49086068
:103F100005E00B49096831EA00000949086070476B
:103F20000410024000127A0000093D0064000020E5
:103F30009C000020181002401C1002400C1002408F
:103F400010100240F0B400220026002400250023B7
:103F5000002791F803C01CF00F0C624691F803C0D3
:103F60005FEACC6C01D58B781A430B781B0621D005
:103F70000368002406E0CD78482D02D10125A54034
:103F80000561641C082C14D20125A5400E882E4022
:103F9000AE42F6D1A5000F2616FA05F7BB4312FA7A
:103FA00005F52B43CD78282DE5D10125A5404561A8
:103FB000E7E703600B884FF48074A34226D343687D
:103FC000002420E0012514F10806B5400E882E409B
:103FD000AE4217D1A5000F2616FA05F7BB4312FA19
:103FE00005F52B43CD78282D04D1012514F10806C1
:103FF000B5404561CD78482D04D1012514F108065E
:10400000B5400561641C082CDCD34360F0BC7047EC
:104010000022806880B2084201D0012200E0002224
:104020001000C0B2704789B20161704789B2416126
:10403000704700007047000090EA010F44BF81F014
:104040000041FEF7ACB9431A4FF000423EBF534067
:10405000C01AC918D3095FEAD05C13EB400F34BF14
:10406000B3EB410F40E07CEBD1530CD342EA01218A
:1040700022D8D1EB402009D3400A28BF5FEA500183
:1040800040EBCC507047401A15D04002B0FA80F295
:10409000521C9040400A4FEA3C23B3EB026384BFBA
:1040A00000EB730007E040F400001A16DB07C2F1D2
:1040B0000102D04018437047182BFCDC31FA03F2A0
:1040C00002FA03F3591A38BF42F00102D2EB402042
:1040D0003CBF4000ACF1010C5FEACC5CC20572F160
:1040E00000414CEB5020704713EB400F0FD24B00B8
:1040F00009D0ACEBD153022B03DB4902172BDDDDDA
:1041000070479143401A4300D5D10020704713EB0C
:10411000410FD0D36FF00000704710B504002000AD
:1041200000F036F8200010BD62F30F2262F31F4248
:10413000401810F0030308D0C91A1FD3DB0748BF8B
:1041400000F8012D28BF20F8022D130030B41446CA
:104150001546103928BF20E93C00FAD8490728BF86
:1041600020E90C0048BF40F8042D890028BF20F842
:10417000022D48BF00F8012D30BC7047C91818BF88
:1041800000F8012DCB0728BF00F8012D7047000073
:104190004AB38B0707D0521E11F8013B00F8013BD0
:1041A00021D08B07F7D183071ED1103A07D330B443
:1041B000B1E83810103AA0E83810F9D230BC5307F3
:1041C00024BFB1E80810A0E8081044BF51F8043B30
:1041D00040F8043BD20724BF31F8022B20F8022B11
:1041E00044BF0B7803707047083A07D3B1E8081052
:1041F000083A40F8043B40F804CBF7D25307E4E711
:1042000070B50C0015001E0080B200F03CFCA4B29A
:10421000200000F038FCADB2280000F034FCB6B24B
:10422000300000F030FC002070BD10B52021DFF818
:10423000080700F062FD012840F09580DFF8F806DD
:1042400000F057FD04002021DFF8EC0600F063FDCC
:10425000DFF8E8060078002803D002283CD032D3EB
:1042600081E0DFF8DC0600680078E4B2844220D107
:10427000DFF8D0060078401CDFF8C8160870DFF8B9
:10428000C0060068401CDFF8B8160860DFF8B40606
:104290000078042816D1DFF8AC0600210170DFF8A1
:1042A000A006DFF8A4160160DFF890060121017076
:1042B00008E0DFF8900600210170DFF88406DFF8DF
:1042C000881601604FE0DFF8840600680470DFF8AC
:1042D0006C060221017046E0DFF874060068007881
:1042E000E4B2844232D1DFF86C060078401CDFF87B
:1042F00064160870DFF858060068401CDFF8501696
:104300000860DFF85006007804282CD1DFF8340666
:1043100000210170DFF83C0600210170DFF8300653
:10432000DFF834160160DFF81806DFF81C160160AC
:10433000DFF81806DFF824160160DFF80006002118
:104340000170DFF81C06012101700CE0DFF80406A3
:1043500000210170DFF8F805DFF8FC150160DFF8D7
:10436000DC050021017010BD80B5DFF8F405007890
:10437000012860D1DFF8E80500210170DFF8DC05D5
:104380000078C0B2302824D0312825D0322826D059
:10439000332827D0342828D0352827D03A2826D0CB
:1043A0003D2825D03E2826D03F2827D0402828D099
:1043B000412829D042282AD043282BD044282CD069
:1043C00045282DD046282ED047282FD0482830D039
:1043D00031E000F00BFE2EE000F0ECFD2BE000F0F1
:1043E00021FE28E000F033FE25E024E023E022E077
:1043F00000F05AF91FE000F065F91CE000F070F9D8
:1044000019E000F07BF916E000F086F913E000F007
:1044100091F910E000F09CF90DE000F0A7F90AE036
:1044200000F0B2F907E000F0BDF904E000F0C8F9CF
:1044300001E000F0D3F901BD38B5040000222000EE
:10444000002100F033FE01D8012201E094F0004485
:10445000D2B2012A03D12B2000F007FB02E02D206D
:1044600000F003FB2000DFF8FC14FDF7D7FE0CD2B0
:10447000302000F0FAFA2E2000F0F7FA302000F099
:10448000F4FA302000F0F1FAD2E02000DFF8D8147E
:10449000FDF7C4FE16D2DFF8D4042100FDF752FE6A
:1044A000FEF708F80500302000F0DFFA2E2000F0BB
:1044B000DCFA302000F0D9FA15F13000C0B200F07B
:1044C000D4FAB5E020005FF07E51FDF7A7FE21D2BF
:1044D000DFF898042100FDF735FEFDF7EBFFC0B2D1
:1044E0000A2190FBF1F4C0B20A2190FBF1F201FB2A
:1044F0001205302000F0B9FA2E2000F0B6FA14F1BF
:104500003000C0B200F0B1FA15F13000C0B200F0D6
:10451000ACFA8DE02000DFF85814FDF77FFE2CD2B6
:10452000DFF848042100FDF70DFEFDF7C3FF80B260
:10453000642190FBF1F180B2642290FBF2F302FB64
:1045400013020A2392FBF3F480B20A2290FBF2F3E7
:1045500002FB130511F13000C0B200F086FA2E20E4
:1045600000F083FA14F13000C0B200F07EFA15F1C9
:104570003000C0B200F079FA5AE02000DFF8EC1306
:10458000FDF74CFE2CD2DFF8E8032100FDF7DAFD41
:10459000FDF790FF80B2642190FBF1F180B26422BC
:1045A00090FBF2F302FB13020A2392FBF3F480B2B6
:1045B0000A2290FBF2F302FB130511F13000C0B2A6
:1045C00000F053FA14F13000C0B200F04EFA2E2081
:1045D00000F04BFA15F13000C0B200F046FA27E0C7
:1045E0002000FDF767FFC0B2642190FBF1F1C0B27B
:1045F000642290FBF2F302FB13020A2392FBF3F412
:10460000C0B20A2290FBF2F302FB130511F1300055
:10461000C0B200F02AFA14F13000C0B200F025FA5E
:1046200015F13000C0B200F020FA2E2000F01DFA83
:1046300031BD70B580B24FF47A7190FBF1F180B268
:104640004FF47A7290FBF2F302FB1302642392FBA5
:10465000F3F480B2642290FBF2F302FB13020A230C
:1046600092FBF3F580B20A2290FBF2F302FB1306F1
:10467000C9B2012905D311F13000C0B200F0F5F93B
:1046800002E0202000F0F1F914F13000C0B200F097
:10469000ECF915F13000C0B200F0E7F916F1300086
:1046A000C0B200F0E2F970BD00B5B2488068FDF715
:1046B000C1FEB14AB14B00F00BFD00F07DFDAD49EC
:1046C000886000BD00B5AB48C068FDF7B3FEAA4ADC
:1046D000AA4B00F0FDFC00F06FFDA649C86000BDCC
:1046E00000B5A4480069FDF7A5FEA34AA34B00F05E
:1046F000EFFC00F061FD9F49086100BD00B59D48D9
:104700008068FDF797FE9C4A9D4B00F0E1FC00F0AD
:1047100053FD9849886000BD00B59648C068FDF714
:1047200089FE954A964B00F0D3FC00F045FD914977
:10473000C86000BD00B58F480069FDF77BFE8E4A5A
:104740008F4B00F0C5FC00F037FD8A49086100BDC1
:1047500000B58C488068FDF76DFE874A874B00F0F6
:10476000B7FC00F029FD8749886000BD00B5854889
:10477000C068FDF75FFE804A804B00F0A9FC00F0A6
:104780001BFD8049C86000BD00B57E480069FDF78B
:1047900051FE794A794B00F09BFC00F00DFD794900
:1047A000086100BD00B577488068FDF743FE724A96
:1047B000734B00F08DFC00F0FFFC7249886000BD77
:1047C00000B57048C068FDF735FE6B4A6C4B00F0D1
:1047D0007FFC00F0F1FC6B49C86000BD00B5694882
:1047E0000069FDF727FE644A654B00F071FC00F09C
:1047F000E3FC6449086100BD80B5532000F035F941
:1048000061480078002812D0022820D017D304284D
:1048100030D024D3062843D037D3082853D04AD3E6
:104820000A2860D057D30C286DD064D372E03120B1
:1048300000F01BF955480068FFF7FEFD6AE03220E2
:1048400000F013F952480068FFF7F6FD62E03320EC
:1048500000F00BF94F480068FFF7EEFD5AE03420F6
:1048600000F003F94C480088FFF7E3FE2020FFF733
:10487000E0FE4FE0352000F0F8F848480088FFF7E8
:10488000D8FE2020FFF7D5FE44E0362000F0EDF8FA
:1048900043480088FFF7CDFE2020FFF7CAFE39E02D
:1048A000372000F0E2F83F480088FFF7C2FE2020E2
:1048B000FFF7BFFE2EE0382000F0D7F82D488068C3
:1048C000FFF7BAFD26E0392000F0CFF82948C0688C
:1048D000FFF7B2FD1EE0612000F0C7F8254800692F
:1048E000FFF7AAFD16E0622000F0BFF825488068B7
:1048F000FFF7A2FD0EE0632000F0B7F82148C06882
:10490000FFF79AFD06E0642000F0AFF81D4800694B
:10491000FFF792FD1C480078401C1B4908701A489C
:1049200000780D2802D1184800210170452000F0C0
:104930009CF801BD00000000004800403A01002042
:104940009000002037010020800000209800002007
:10495000940000203801002088000020A4000020DE
:10496000390100200BD7233CCDCCCC3D0000C84200
:10497000000020412C0000209A9999999999B93FFB
:104980009999B9BF480000203B0100200801002090
:104990000C010020100100202E0100203001002019
:1049A000320100203401002080B501210820FFF7EA
:1049B00077FA01215FF48020FFF782FA01BD80B50C
:1049C0004FF48060ADF8000003208DF8020018203D
:1049D0008DF8030000A97348FFF7B4FA4FF40060A4
:1049E000ADF8000004208DF8030000A96D48FFF722
:1049F000A9FA01BD00B585B04FF416500090002013
:104A0000ADF804000020ADF806000020ADF8080065
:104A10000020ADF80C000C20ADF80A0000A9624897
:104A200000F0CAF8012240F225515F4800F034F945
:104A300001215D4800F022F905B000BD80B50021DC
:104A40005FF0006000F038FC4FF4E06000F0FCFB29
:104A500027208DF8000002208DF8020001208DF83B
:104A6000030000A800F0F5FB01BD80B5C0B2010055
:104A700089B24D4800F039F980214B4800F03DF9EA
:104A80000028F9D001BD10B50400200AC0B2FFF71C
:104A9000ECFF2000C0B2FFF7E8FF10BD80B5012198
:104AA0005FF40030FFF70CFA01BD80B50420ADF8CB
:104AB000000003208DF8020018208DF8030000A9E3
:104AC0003A48FFF73FFA0820ADF8000004208DF8BF
:104AD000030000A93548FFF735FA01BD00B585B0E0
:104AE0004FF4165000900020ADF804000020ADF8FF
:104AF00006000020ADF808000020ADF80C000C20E6
:104B0000ADF80A0000A92A4800F056F8012240F248
:104B10002551274800F0C0F80121254800F0AEF8E3
:104B200005B000BD80B500215FF0006000F0C4FB5F
:104B30004FF4E06000F088FB26208DF80000012093
:104B40008DF8030000A800F084FB01BD80B5C0B261
:104B5000010089B2164800F0C8F88021144800F01E
:104B6000CCF80028F9D001BD10B540F2255110480D
:104B700000F0C3F8040040F225510D4800F0D1F8D0
:104B800000280CD00A4800F0B4F80A4908706120E7
:104B9000FFF7DCFF40F22551054800F0F4F810BDA6
:104BA00000000000000C01400048004000080140E7
:104BB0000044004036010020F0B585B004000D002F
:104BC00000200021002200230026AF89002F2600AC
:104BD000208A4CF6FF710840E98808432082A089AA
:104BE0004EF6F3110840A9882A8911436A891143B6
:104BF0000843A081A08A4FF6FF410840A9890843D5
:104C0000A08200A8FFF7ECF81B48864201D1039967
:104C100000E00299A089000407D5192000FB01F0EB
:104C200029684900B0FBF1F206E0192000FB01F011
:104C300029688900B0FBF1F26420B2FBF0F00001BA
:104C40000109642303FB1123A189090408D5D900B4
:104C500032316422B1FBF2F111F00701084307E0A1
:104C6000190132316422B1FBF2F111F00F01084356
:104C7000208105B0F0BD000000380140C9B2002914
:104C800004D0818951F40051818104E081894DF67D
:104C9000FF72114081817047F0B400230024002589
:104CA000002640F66A1789B2B94206000800C0B271
:104CB0004309DBB289B211F01F04012010FA04F598
:104CC000012B01D10C3604E0022B01D1103600E09B
:104CD0001436D2B2002A03D030682843306002E094
:104CE0003068A8433060F0BC7047C905C90D8180A9
:104CF00070478088C005C00D704700224FF40073D4
:104D000089B299420088084201D0012200E00022C5
:104D10001000C0B2704789B28A0589B2C9430180C8
:104D2000704770B4002300240025002240F66A1664
:104D300089B2B1420A00D2B25509EDB289B211F07E
:104D40001F04012212FA04F4012D02D182891440B9
:104D500006E0022D02D1028A144001E0828A14404A
:104D600089B20B0A9BB2012111FA03F300880340B8
:104D7000002C03D0002B01D0012200E00022100003
:104D8000C0B270BC704710B40022002340F66A1411
:104D900089B2A14289B20A0A012111FA02F39BB237
:104DA000D943018010BC704710B588B000240121A0
:104DB0000220FFF785F8B0480068B049B0FBF1F079
:104DC000401E040044F61F60ADF814004720ADF803
:104DD00010000020ADF816000020ADF8120004A964
:104DE000A74800F06CFB6020ADF800000120ADF892
:104DF000020040F2CF70ADF806000020ADF80800C8
:104E000000A99F4800F0A5FB08219D4800F0DCFCAC
:104E10000120ADF8020040F2CF70ADF8060000A905
:104E2000974800F0E3FB0821954800F0D6FC0120EC
:104E3000ADF8020040F2CF70ADF8060000A990482E
:104E400000F01CFC08218E4800F0D1FC0120ADF8D8
:104E5000020040F2CF70ADF8060000A9884800F0CB
:104E600054FC0821864800F0CBFC0121844800F066
:104E70009DFC0121824800F07FFC08B010BD80B588
:104E800001210420FFF70CF8C020ADF8000003203A
:104E90008DF8020018208DF8030000A97948FFF76B
:104EA00051F801210820FEF7FBFF0320ADF80000B8
:104EB00003208DF8020018208DF8030000A9724825
:104EC000FFF740F8FFF770FF01BD10B4B0F5FA6FBF
:104ED00001D340F2CF70B1F5FA6F01D340F2CF7138
:104EE000B2F5FA6F01D340F2CF72B3F5FA6F01D386
:104EF00040F2CF734FF47A74A04201D240F2E7300F
:104F00004FF47A74A14201D240F2E7314FF47A743F
:104F1000A24201D240F2E7324FF47A74A34201D2A6
:104F200040F2E733594C20805948018059480380AA
:104F30005948028010BC704780B5584840F2CF7184
:104F40000180574840F2CF710180564840F2CF713E
:104F50000180554840F2CF71018053480388514881
:104F600002884F4801884D480088FFF7AEFF4FF494
:104F7000FA6000F0B8FC494840F2E7310180484847
:104F800040F2E7310180474840F2E731018046486E
:104F900040F2E73101804448038842480288404893
:104FA00001883E480088FFF790FF41F2883000F00A
:104FB0009AFC01BD80B5394840F2E731018038489C
:104FC00040F2E7310180374840F2E731018036484E
:104FD00040F2E73101803448038832480288304883
:104FE00001882E480088FFF770FF01BD80B52B486F
:104FF00040F2E73101802A4840F2E7310180294838
:1050000040F2E7310180284840F2E731018026482C
:105010000388244802882248018820480088FFF736
:1050200054FF01BD1D4800880A301C4908801C48F7
:1050300000880A301A4908801A4800880A3019493D
:105040000880194800880A301749088070471348BB
:1050500000880A3811490880114800880A38104928
:105060000880104800880A380E4908800E480088D9
:105070000A380D4908807047A000002000366E01F4
:105080000004004000080140000C014034040040CE
:1050900038040040400400403C0400402E01002041
:1050A0003001002032010020340100204FF0807CCC
:1050B0001CEB400F94BF1CEB410F05E040EA010CD4
:1050C0005FEA4C0C01D28142704718BF884270479A
:1050D00070B44FF0004591EA030C44BF6B4000F000
:1050E0007ABC841A71EB030603D2001BB14112197A
:1050F00073414FF4001C1CEB410F34BF7CEB4304A5
:1051000043E00C0DA4EB1356352E50DC45EAC323C7
:10511000DB0A45EAC121C912B6F120050DDD63FAAB
:1051200005F6EB4086EA0305124218BF45F001057B
:10513000C01851F100010CD213E062FA06F5F240FA
:105140005540F3415A40B340F3405A40801859410A
:1051500007D349085FEA30005FEA350528BF45F00C
:10516000010501F58011420875F1004250F100007F
:1051700041EB045170BC4FF4001C1CEB410F38BFD5
:1051800070470020090D090570471CEB410F10D234
:1051900052EA43060BD0BCEB410F05D80C0DAB43D4
:1051A000661E342EB5DD02E0AB438018594170BC59
:1051B000704770BC704700004FEAF17CBCF1E04CD6
:1051C0002CBFBCF5001F11E05FEA4C0C34BFBCF1F2
:1051D0007F5F2EE05FEA9C0C4FEA0C1C4FEA3C0C10
:1051E000C10071F100414CEB50707047C90241EAB7
:1051F0005051C00218BF41F0010141F000414FEA97
:105200006C50C0F10900212810D240EACC7CCCF1CE
:10521000200C11FA0CF070F10040CCF1200C21FAB6
:105220000CF00CF0004C40EB0C0070474FEACC70D7
:105230007047490011F5001F04D84FEACC10FF3029
:10524000C0057047C81770471E4908431E490860CB
:10525000704710B4002100220F23C478002C1ED008
:105260001949096811F4E061D1F5E061090AD1F149
:105270000402CB404178914082781A4011430901E1
:105280000278124BD15401784911114A0123007858
:1052900010F01F0013FA00F042F821000AE0017834
:1052A00049110C4A0123007810F01F0013FA00F096
:1052B00042F8210010BC7047074A114008430749D3
:1052C000086070470000FA050CED00E000E400E023
:1052D00000E100E080E100E080FFFF1F08ED00E05A
:1052E00080B5DFF8701588420AD101214FF40060C3
:1052F000FEF7F6FD00214FF40060FEF7F1FDDDE062
:10530000B0F1804F08D101210120FEF7F9FD002105
:105310000120FEF7F5FDD1E0DFF83C15884208D109
:1053200001210220FEF7ECFD00210220FEF7E8FD3E
:10533000C4E0DFF82815884208D101210420FEF7D7
:10534000DFFD00210420FEF7DBFDB7E0DFF81015DC
:10535000884208D101210820FEF7D2FD0021082053
:10536000FEF7CEFDAAE0DFF8FC14884208D1012147
:105370001020FEF7C5FD00211020FEF7C1FD9DE0C5
:10538000DFF8E414884208D101212020FEF7B8FD9F
:1053900000212020FEF7B4FD90E0DFF8D014884211
:1053A0000AD101214FF40050FEF79AFD00214FF47D
:1053B0000050FEF795FD81E0DFF8B41488420AD171
:1053C00001215FF40020FEF78BFD00215FF4002037
:1053D000FEF786FD72E0DFF89C1488420AD10121B5
:1053E0005FF48010FEF77CFD00215FF48010FEF773
:1053F00077FD63E0DFF8801488420AD101215FF471
:105400000010FEF76DFD00215FF40010FEF768FD4F
:1054100054E0DFF86814884208D101214020FEF7EB
:105420006FFD00214020FEF76BFD47E0DFF85014D0
:10543000884208D101218020FEF762FD00218020F2
:10544000FEF75EFD3AE0DFF83C1488420AD1012104
:105450004FF48070FEF754FD00214FF48070FEF78A
:105460004FFD2BE0DFF8201488420AD101215FF4C0
:105470008030FEF735FD00215FF48030FEF730FD0F
:105480001CE0DFF8081488420AD101215FF40030E3
:10549000FEF726FD00215FF40030FEF721FD0DE050
:1054A000DFF8EC13884209D101215FF48020FEF778
:1054B00017FD00215FF48020FEF712FD01BD0022E0
:1054C00003881A00DFF88C33984212D0DFF89C333F
:1054D00098420ED0B0F1804F0BD0DFF87C33984269
:1054E00007D0DFF87833984203D0DFF8743398425E
:1054F00004D14FF68F731A404B881A43DFF8643398
:10550000984208D0DFF86033984204D04FF6FF434A
:105510001A40CB881A4302808A8882850A880285CD
:10552000DFF8302390420FD0DFF8402390420BD0B9
:10553000DFF85423904207D0DFF85023904203D085
:10554000DFF84C23904201D1097A01860121818242
:10555000704770B4002300240022058C4FF6FE76BD
:1055600035400584058C2C0085882A00058B2B008E
:105570004FF68F752B404FF6FC752B400D882B4353
:105580004FF6FD752C400D892C434D882C43DFF8D8
:10559000C452A8420FD0DFF8D452A8420BD0DFF893
:1055A000E852A84207D0DFF8E452A84203D0DFF85F
:1055B000E052A84213D14FF6F7752C404D892C4389
:1055C0004FF6FB752C408D882C434FF6FF652A4023
:1055D0004FF6FF552A408D892A43CD892A43828080
:1055E0000383C9888186048470BC704770B400232B
:1055F00000240022058C4FF6EF7635400584058C9B
:105600002C0085882A00058B2B0048F6FF752B405F
:105610004FF6FF452B400D8853EA05234FF6DF7503
:105620002C400D8954EA05144D8854EA0514DFF81E
:105630002452A84203D0DFF85C52A84217D14FF69B
:105640007F752C404D8954EA05144FF6BF752C40E8
:105650008D8854EA05144FF6FF352A404FF2FF7546
:105660002A408D8952EA8502CD8952EA85028280DC
:105670000383C9880187048470BC704770B4002319
:1056800000240022058C4FF6FF6635400584058C0A
:105690002C0085882A00858B2B004FF68F752B40B8
:1056A0004FF6FC752B400D882B434FF6FF552C40D1
:1056B0000D8954EA05244D8854EA0524DFF89451F5
:1056C000A84203D0DFF8CC51A84217D14FF2FF75A2
:1056D0002C404D8954EA05244FF6FF352C408D8827
:1056E00054EA05244EF6FF752A404DF6FF752A4010
:1056F0008D8952EA0512CD8952EA05128280838390
:10570000C9888187048470BC704770B4002300246A
:105710000022058C4EF6FF7635400584058C2C0062
:1057200085882A00858B2B0048F6FF752B404FF6A5
:10573000FF452B400D8853EA05234DF6FF752C409D
:105740000D8954EA05344D8854EA0534DFF80451D4
:10575000A84203D0DFF83C51A84205D14BF6FF75B3
:105760002A408D8952EA851282808383C988A0F8F5
:105770004010048470BC7047C9B2002904D001886D
:1057800051F00101018004E001884FF6FE721140E2
:1057900001807047D2B2002A03D0828911438181EF
:1057A00003E0828932EA010181817047C9B2002990
:1057B00004D0018851F08001018004E001884FF697
:1057C0007F721140018070470022038B1A004FF650
:1057D000F7731A400A43028370470022038B1A00B2
:1057E0004FF2FF731A4052EA0122028370470022EF
:1057F000838B1A004FF6F7731A400A43828370476F
:105800000022838B1A004FF2FF731A4052EA0122E2
:105810008283704789B2C9430182704730B4002245
:1058200000230024058A0D402B00808908400400D5
:105830009BB2002B04D0A4B2002C01D0012200E0C6
:1058400000221000C0B230BC704789B2C943018247
:1058500070470000002C0140000400400008004098
:10586000000C0040001000400014004000340140D3
:10587000004C01400050014000540140001800401D
:10588000001C004000200040004001400044014056
:105890000048014000340140E0B501210420FEF73A
:1058A0000FFB4348FFF71CFD4FF47A70ADF804007E
:1058B0004720ADF800000020ADF806000020ADF84C
:1058C000020000A93A48FFF7FAFD01213848FFF726
:1058D000A1FF012201213648FFF75CFF0121344876
:1058E000FFF74AFF07BD10B50400324800210180D0
:1058F00009E001212E48FFF791FF0028F9D001218E
:105900002B48FFF7A2FF2000441E80B20028F0D1F0
:1059100010BDE0B501210120FEF7D2FA5FF0804012
:10592000FFF7DEFC4FF47A70ADF804004720ADF8C5
:1059300000000020ADF806000020ADF8020000A92C
:105940005FF08040FFF7BBFD01215FF08040FFF773
:1059500061FF012201215FF08040FFF71BFF012161
:105960005FF08040FFF708FF07BD80B54FF4A060EF
:10597000FFF76AFC1C208DF8000003208DF8010061
:1059800001208DF8030000A8FFF763FC01BD0A4861
:105990000068401C0849086008480068401C074926
:1059A000086007480068401C05490860704700000F
:1059B00000080040240800401C01002024010020B1
:1059C0002001002070B44FF0004591EA030F44BF5E
:1059D0006B40FFF786BB841A71EB030604D26E405E
:1059E000001BB141121973414FF4001C1CEB410F15
:1059F00034BF7CEB430684E00C0DA4EB1356362E2B
:105A00007DDC012E43DC45EAC32343EA525312BF37
:105A1000D20292025B08240545EAC12141EA5051B5
:105A2000D2EBC020994125D407D1B0FA80F610FA04
:105A300006F164D00020203608E0B1FA81F6B140CA
:105A4000C6F1200220FA02F21143B0404FEAF4748A
:105A5000B4EB465434F001064FEA74040AD8D6F584
:105A60000016760D04F00044F04061FA06F2504052
:105A7000F1404840C00A40EA415021F0004128BFAF
:105A80005FEA500550F1000044EBD12137E045EAD0
:105A9000C323DB0A45EAC121C90AB6F120050EDDA0
:105AA00042EA0242120CC5F1200603FA06F6EB4068
:105AB00042EA06056D42984161F100010DE062FA8B
:105AC00006F5F240554063FA06FC82EA0C02F34008
:105AD0005A406D42904161EB030111F4801F05D1E2
